:020000040800F2
:1000000088C600202D020008834D00080513000853
:10001000814D00087D0A0008A16F00080000000063
:1000200000000000000000000000000097680008C9
:100030005B0D0008000000007B4F0008AB6A000861
:10004000470200084702000847020008470200086C
:1000500047020008470200085D0D0008470200083B
:1000600047020008950D0008CD0D00084702000862
:10007000470200084702000847020008470200083C
:10008000470200084702000847020008470200082C
:10009000470200084702000847020008490E00080E
:1000A000470200084702000847020008470200080C
:1000B00047020008FD6A0008316B0008470200088B
:1000C00047020008470200084702000847020008EC
:1000D00047020008056E00084702000847020008B2
:1000E00047020008470200084702000847020008CC
:1000F00047020008470200084702000847020008BC
:10010000470200083D5400086D6B000847020008D4
:100110004702000847020008F56B00084702000884
:10012000470200084702000847020008470200088B
:1001300000F002F800F06BF80AA090E8000C82448E
:100140008344AAF10107DA4501D100F060F8AFF26B
:10015000090EBAE80F0013F0010F18BFFB1A43F0A5
:10016000010318479CF60000BCF600000A444FF05B
:10017000000C10F8013B13F0070408BF10F8014B06
:100180001D1108BF10F8015B641E05D010F8016B4B
:10019000641E01F8016BF9D113F0080F1EBF10F8AF
:1001A000014BAD1C0C1B09D16D1E58BF01F801CBD2
:1001B000FAD505E014F8016B01F8016B6D1EF9D555
:1001C0009142D6D37047000000230024002500266A
:1001D000103A28BF78C1FBD8520728BF30C148BFAA
:1001E0000B607047642900F0D780752900F0D48037
:1001F000782900F00D81632900F09F83732900F0B6
:10020000A483002070471FB51FBD10B510BD00F0BE
:10021000E9FB1146FFF7F7FF0AF08EFA00F007FC42
:1002200003B4FFF7F2FF03BC07F027F80948804743
:1002300009480047FEE7FEE7FEE7FEE7FEE7FEE7C8
:10024000FEE7FEE7FEE7FEE704480549054A064BE0
:1002500070470000AD6A00083101000888C0002026
:1002600088C6002088C2002088C20020704710B5D0
:100270004C1084EA530404D54042C1F1000138BF58
:10028000491E1B4204D55242C3F1000338BF5B1E16
:1002900000F05CFA14F0804F04D04042C1F100013C
:1002A00038BF491E14F0004F04D05242C3F100037E
:1002B00038BF5B1E10BD00000FB4044910B503AA7F
:1002C000029800F047FB10BC5DF814FB38000020DA
:1002D0000FB41CB5074B06AA7B44694600900598ED
:1002E00000F009FB0020694600F018FB1CBC5DF81B
:1002F00014FB00004106000070B5044685690068E3
:10030000C10601D5302600E02026C00707D070BD09
:10031000D4E9012130469047206A401C20626D1EBE
:10032000F6D570BD70B5044685690078C00707D161
:1003300070BDD4E9012120209047206A401C206232
:100340006D1EF6D570BD70B50C460546012A05D068
:100350002878800600D5EA69002302E0012305E041
:100360005B1C934202D2E05C0028F9D1A869E61830
:10037000C01AA861286A184428622846FFF7BCFF03
:1003800004E0D5E9012114F8010B9047B442F8D3F9
:100390002846FFF7C7FF70BD2DE9F041064600244F
:1003A00010687529314616A510D0AFF300800028DB
:1003B00002DA404213A507E031688A0701D512A589
:1003C00002E0490704D511A5012401E0AFF3008044
:1003D00000210A2206F1240709E0B0FBF2FCB0FB81
:1003E000F2F302FB1C00303078541846491C0028F8
:1003F000F3D123462A463046BDE8F04100F01DBA4D
:10040000000000002D0000002B0000002000000074
:1004100070B504460D4621461068AFF30080218870
:10042000090502D50F4A7A4402E00E4A7A440E3298
:10043000002104F1240305E000F00F060009965D99
:100440005E54491C0028F7D120780023000704D50A
:10045000702D02D009B1022311322046BDE8704050
:1004600000F0EBB9CAF100002DE9F05F89460446BF
:100470004FF0000ADFF874B1FB44C0F820A020461A
:10048000E1688847002874D0252806D0D4E90121E6
:100490009047206A401C2062F1E700265F46204614
:1004A000E16888472028054607DB312D05D27819F9
:1004B00010F8200C08B10643F1E7B00701D526F08B
:1004C0000406C4F81CA00027C4F818A02A2D09D0DF
:1004D000284606F0CBFE38B304EB8708303DC8F859
:1004E000185019E059F8041B204604EB870291616B
:1004F000E1688847012F054618D1E069002820DA15
:1005000026F020061DE0D8F8180000EB800005EB6F
:1005100040003038C8F818002046E1688847054692
:1005200006F0A4FE0028EED1012F0AD02E2D08D10E
:100530002046E16888477F1C0546022F46F02006CA
:10054000C4DBA069002803DA404246F00106A0613E
:10055000F00701D026F010066C2D0BD0682D09D0C5
:100560004C2D39D06A2D35D0742D35D07A2D33D01D
:1005700016E038E0E1682F4620468847B842054635
:1005800009D16C2F26D04FF48060E16806432046E5
:100590008847054604E06C2F1AD04FF4807006435C
:1005A0000DB3A5F14100192802D8203546F40066A4
:1005B0004A462946204626604E46FFF713FE80B184
:1005C00001280BD0F61D26F0070000F1080956E7B8
:1005D0004020E4E78020D8E70020D6E706F10409B0
:1005E0004DE7284652E7206ABDE8F09FA0F10000E1
:1005F00040EA0103024630B59B0710D14FF00134A9
:1006000000E008C208C91D1B9D4315EAC41FF8D0AD
:1006100013F0FF0102F8011B0DD01B0AF8E711F8D7
:10062000013B002B02F8013B05D011F8013B002BE8
:1006300002F8013BF3D130BD032A40F2308010F0C4
:10064000030C00F0158011F8013BBCF1020F62446D
:1006500098BF11F801CB00F8013B38BF11F8013BFE
:10066000A2F1040298BF00F801CB38BF00F8013BAB
:1006700011F0030300F08081083AC0F0088051F8BF
:10068000043B083A51F804CBA0E80810F5E7121D26
:100690005CBF51F8043B40F8043BAFF30080D20745
:1006A00024BF11F8013B11F801CB48BF11F8012B11
:1006B00024BF00F8013B00F801CB48BF00F8012B34
:1006C000704700004FF0013C50F8042B51F8043BF8
:1006D0009A4221D1A2EB0C03934313EACC1317D116
:1006E00050F8042B51F8043B9A4215D1A2EB0C03AD
:1006F000934313EACC130BD150F8042B51F8043B6D
:100700009A4209D1A2EB0C03934313EACC13DBD03A
:100710004FF00000704700BFD01A01BAB1FA81F162
:1007200001F0180122FA01F0CB40C1F12001DBB247
:10073000C0B2C01A2CFA01F3D11A914311EAC311C5
:10074000E6D17047704770477047704753EA020C14
:1007500000F069802DE9F04B4FF00006002B1FBF21
:10076000B3FA83F503FA05F424FA05F65E4012BFE6
:100770001643B2FA82F502FA05F4C5F120051EBF50
:1007800022FA05FC44EA0C04203556EA044C4FEAF0
:10079000144418BF641C4FF000084FF00009904249
:1007A00071EB030C39D3002919BFB1FA81F701FAB3
:1007B00007F6B0FA80F700FA07F6C7F120071EBF68
:1007C00020FA07FC46EA0C062037B6FBF4FCA7EB40
:1007D0000507103F07F01F0BCBF120060CFA0BFBAF
:1007E0002CFA06F644BFB3460026202FA4BF5E466F
:1007F0004FF0000B5BEA060C08BF4FF0010B19EB42
:100800000B09ABFB027C48EB0608C01B06FB02CCC5
:100810000BFB03CC71EB0C01C1E70B4602464146D2
:100820004846BDE8F08B13B54FF000004FF00001D3
:10083000AFF30080BDE81C4070472DE9F0470D463E
:1008400099469246044600F124080168880604D5BA
:10085000E06921F01001216000E00120A84201DDE3
:10086000471B00E00027A1697A1902EB0900081A6A
:10087000A0612078C00602D42046FFF73DFD002687
:1008800008E0D4E901211AF806009047206A401CCC
:10089000761C20624E45F4DB2078C0060AD520463F
:1008A000FFF72AFD06E0D4E9012130209047206AB5
:1008B000401C2062381EA7F10107F4DC07E0D4E9F0
:1008C000012118F805009047206A401C2062281E6C
:1008D000A5F10105F3DC2046FFF724FD2078000692
:1008E00002D50220BDE8F0870120FBE701694A1C20
:1008F00002610878704700B58FB0CDE90131002161
:10090000059105497944CDE9031011466846FFF782
:10091000ABFD0FB000BD0000E5FFFFFF0A6802F865
:10092000010B0A60704710B5436913B1AFF3008043
:1009300001E0FFF708FD012010BD127800F124014D
:100940000A7000224A700122EDE711684FF0FF3271
:10095000E9E70000074B70B50D467B44FFF7CBFF7E
:100960000446284600F03AF810B14FF0FF3070BD51
:10097000204670BDF389000010B5203AC0F00B800E
:10098000B1E81850203AA0E81850B1E81850A0E893
:100990001850BFF4F5AF5FEA027C24BFB1E81850ED
:1009A000A0E8185044BF18C918C0BDE810405FEA5D
:1009B000827C24BF51F8043B40F8043B08BF7047D9
:1009C000D20728BF31F8023B48BF11F8012B28BFDE
:1009D00020F8023B48BF00F8012B7047007B00F075
:1009E00080007047754600F02BF8AE46050069465A
:1009F000534620F00700854618B020B5FFF724FCC9
:100A0000BDE820404FF000064FF000074FF000080F
:100A10004FF0000B21F00701AC46ACE8C009ACE890
:100A2000C009ACE8C009ACE8C0098D46704710B5F4
:100A30000446AFF300802046BDE81040FFF7F0BB4E
:100A40000048704724C000200948816941F008012E
:100A500081610848016821F00F010160016841F0DF
:100A60000301016004490020C1F8A00170470000A3
:100A700000100240040C014000802142FEE770B5E6
:100A800000254FF4803405E0802004F0C5FC08B157
:100A900044B101E0641EF7D240F2FF5004F078FC4C
:100AA000284670BD032070BD70B5124C0546616BC1
:100AB00011F0450FFBD0042004F0AEFC20B104205F
:100AC00004F066FC032070BD012004F0A5FC20B1F9
:100AD000012004F05DFC012070BD2069A84201D016
:100AE000102070BD40F2FF50A063606900F0080064
:100AF00070BD00000080014010B500244FF480312B
:100B00000E4809E0426B12F0450F05D009B15007BD
:100B100005D5032404200CE0491EF3D2F7E7012099
:100B200004F07AFC18B10124204604F031FC40F2B4
:100B3000FF5004F02DFC204610BD00000080014055
:100B400010B50A49486B10F0450FFBD0042004F0A3
:100B500063FC20B1042004F01BFC032010BD40F214
:100B6000FF5004F015FC002010BD00000080014083
:100B70002DE9F0411B4C0E4607460025606B10F036
:100B8000450FFBD0042004F047FC28B1042004F0FA
:100B9000FFFB0320BDE8F081012004F03DFC20B103
:100BA000012004F0F5FB0120F4E72069B84210D1E0
:100BB00040F2FF5004F0ECFB626912F4604F03D086
:100BC000900404D51320E5E7100C308007E05004B2
:100BD00001D51020DEE7100401D50F20DAE7284602
:100BE000D8E700000080014010B500244FF48032A7
:100BF0000B4809E0416B11F0450F05D00AB14807D9
:100C000005D50324042006E0521EF3D2F7E7480678
:100C100003D50024402004F0BBFB204610BD00009B
:100C2000008001400029016802D041F0010102E08A
:100C30004FF6FE72114001607047000001684FF6E8
:100C4000FE72114001600021016041608160C1605D
:100C50003149314A0839904203D1486840F00F00C9
:100C600006E02D4A1432904204D1486840F0F0006A
:100C700048607047284A2832904203D1486840F4BF
:100C80007060F5E7244A3C32904203D1486840F452
:100C90007040EDE7204A5032904203D1486840F45A
:100CA0007020E5E71C4A6432904203D1486840F462
:100CB0007000DDE7184A7832904203D1486840F06E
:100CC0007060D5E7154A111F904203D1086840F0C3
:100CD0000F0006E0114A1432904204D1086840F037
:100CE000F000086070470D4A2832904203D108682E
:100CF00040F47060F5E7094A3C32904203D108683D
:100D000040F47040EDE7054A50329042EAD108685D
:100D100040F47020E5E700000800024008040240AB
:100D200030B5026847F6F0739A430C6A8B68234328
:100D3000D1E904452C4323438C692343CC692343E5
:100D40004C6A23438C6A234313430360CA6842609E
:100D50000A6882604968C16030BD704710B50A20DA
:100D600007F042F80121094800F07CFA012806D179
:100D70000749D1F8A00138B10020C1F8A001BDE8B1
:100D80001040012000F082B80120F6E70008014081
:100D90000080214210B50A2007F026F808210948F2
:100DA00000F060FA30B90849D1F8940138B1002058
:100DB000C1F89401BDE81040082000F067B8012098
:100DC000F6E70000001801400000234210B50A2099
:100DD00007F00AF81021094800F044FA30B9084930
:100DE000D1F8940138B10020C1F89401BDE8104059
:100DF000102000F04BB80120F6E700000018014079
:100E0000008021423EB50821002000F09DF94FF4FA
:100E10008070002400908DF8044008208DF80500B3
:100E200001258DF80650684600F046F817208DF829
:100E300008008DF809408DF80A408DF80B5002A883
:100E400003F0A0FF3EBD000010B54FF480742046B3
:100E500000F022F801280DD1094A0020C2F89801BB
:100E60000121C2F898110748C0F88C110648017892
:100E7000491C01702046BDE8104000F007B8000092
:100E800000802242008021422C000020014908609D
:100E90007047000014040140064A01460020126811
:100EA000044B0A4014331B680B4202D0002A00D0C6
:100EB000012070470004014030B51A4A8379016867
:100EC00053B313688B431360111D0B680468A3436D
:100ED0000B60017911440B68046823430B60114BCC
:100EE000083319680468A14319601C1D216805684E
:100EF000A94321604179102905D011440A6800688E
:100F000002430A6030BD1968026811431960216804
:100F100000680143216030BD0079104402688A43B3
:100F2000026030BD000401408000A0F1C0400029F3
:100F3000016802D041F0010101E0024A1140016064
:100F400070470000FEFF0F0010B5D0E901121143F9
:100F5000D0E903231A4311434269114382691143C3
:100F6000C2691143026A1143426A1143826A114302
:100F7000C26A1143026B114302689200A2F1C0429F
:100F800011608168082907D101688900A1F1C04179
:100F90000A6842F040020A60416BD1E9002342EA4C
:100FA00003128B688C891B0243EA04431A430B8AA1
:100FB00042EA03520B7D896942EA03620A430168EF
:100FC0008900A1F1C0414A60C16AB1F5804F08D0E3
:100FD00000686FF070418000A0F1C040C0F80411BB
:100FE00010BD816BD1E9002342EA03128B680C8AA1
:100FF0001B0243EA04531A430B7D896942EA0362E8
:1010000000680A438000A0F1C040C0F8042110BD70
:101010002DE9FC470024494F00944FF0080A019441
:1010200010204FF04009C7F800A0C7E901094FF4AC
:101030008068C7E903480E462546384604F01CFA86
:101040001020FFF731FD00284DD13D4800890004F4
:1010500038603720C7E90109C7E90358384604F06A
:101060000BFA3720FFF720FD00283CD1411E07F185
:101070001400C0E9001A302181600221C0E9031583
:101080000121416104F0A0F93320C7F80890C7E9B5
:101090000050C7E90358384604F0EEF93320FFF753
:1010A00003FD05001FD1DFF89C804FF4001A6F4646
:1010B00040F22A69D8F8340010EA090F0BD15046E3
:1010C00004F0AAF90028F5D004F0D0F947F824007C
:1010D000641C022CEED3082004F09EF928B10820ED
:1010E00004F056F90420BDE8FC87022004F094F9CE
:1010F00020B1022004F04CF90220F4E7202004F093
:101100008BF920B1202004F043F90620EBE74FF4DF
:101110000074204604F080F920B1204604F038F92C
:101120000720E0E740F2FF5004F032F9009800BADF
:101130007060019800BA30602846D4E71012002091
:101140001C0000200080014010B58A0721F0030434
:101150000649120F21440F238C6893409C438C60F6
:101160008B68904003438B6010BD0000000001407D
:10117000F0B5CC78002204F00F03E40601D58C789A
:1011800023430C784FF00F0C14F0FF0F4FF0010EBB
:101190001BD005680E880EFA02F42640A64210D134
:1011A00096000CFA06F725EA070703FA06F5CE784B
:1011B0003D43282E02D0482E02D002E0446100E0D8
:1011C0000461521C082AE5D305600A88FF2A1CD94D
:1011D0004468002202F108060EFA06F50E882E4039
:1011E000AE420ED196000CFA06F7BC4303FA06F79E
:1011F000CE783C43282E00D14561CE78482E00D1D0
:101200000561521C082AE5D34460F0BDF0B5144CCA
:10121000002801DAE36900E06368450D2E0185B21C
:10122000C0F30157B540C0F30342032F05D0C602F7
:101230000AD503269640B34307E023F07062636843
:1012400023F07063636002E0AB4343F0706201B16E
:101250002A43002801DAE261F0BD6260F0BD0000BF
:10126000000001400246002092680A4200D001209E
:10127000704701617047000030B40C4601461546C6
:10128000500700D0012000EBD5006843C2B20878B7
:101290004B78812809D3402B07D3FF2B05D0FF289B
:1012A00003D07F2B0CD2403B0BE00023184603E019
:1012B0005B1C04F8010BDBB29342F9D330BC7047DE
:1012C000413B8138D9B2C0B2C0EB401303EB801070
:1012D00001EB400050430A490C2D0AD0102D0BD0D1
:1012E000182DEBD1D1F819100144204630BC05F07F
:1012F000B1BED1F80910F7E7D1F81110F4E70000FA
:10130000C4BF0020FEE772B6704762B670470000A7
:101310007CB5054600211E48009101910089020418
:101320001C4802600D2242604022C0E902211101E6
:10133000016104F0A1F8184C606B0190014601E0D6
:10134000616B019111F0450FFAD0012004F064F8AF
:1013500020B1012004F01CF801207CBD042004F021
:101360005BF820B1042004F013F803207CBD206951
:101370000D2801D010207CBD40F2FF5004F008F889
:1013800060690090C0F34320287000207CBD0000FD
:101390001C000020101200200080014008B501212F
:1013A000442003F003FE1820ADF8000048208DF81B
:1013B000030069460648FFF7DBFE0120ADF8000098
:1013C00028208DF8030069460248FFF7D1FE08BDCA
:1013D00000180140000801402DE9F041254C264F3E
:1013E000264D012608B1267001E0207878B1102141
:1013F0002846FFF737FF88B108212846FFF732FF5C
:1014000060B101213846FFF72DFF012806D01021D9
:101410002846FFF727FF01281DD028E00A2006F004
:10142000E3FC0020207010212846FFF71BFF58B175
:1014300008212846FFF716FF48B101213846FFF77B
:1014400011FF012805D012E00120BDE8F081022043
:10145000FBE70320F9E708212846FFF703FF0128EF
:1014600005D101213846FFF7FDFE00B926700020A6
:10147000EBE70000140000200008014000180140C4
:10148000C0F34511C20AC00200EB4110104480B203
:10149000704700002DE9F043174F064600243888B6
:1014A0007D884543B888A0F5D041043902D1B87988
:1014B000012807D00021084603F036FA03F026FC85
:1014C0000E4815E00020B8714FF02A09A7F80A90DD
:1014D0004FF02B08A7F80C80014603F025FA0120F5
:1014E000B871A7F80A80A7F80C90E7E70680641C9B
:1014F000AC42FBD3BDE8F083E40100200008006C9F
:101500002DE9F04F4A492A232B24898845F2105AA5
:101510004FF4305B4FF4285E4FF448754FF0F00CF9
:1015200049F241394FF4A07745F210364FF4F0728A
:1015300080B13F484FF00108494580F80680078098
:10154000A0F802C001D0B1423ED12C2505814381D3
:10155000848157E036484FF00008494580F80680FE
:10156000A0F800C0478006D0A1F5D04CBCF1040C17
:1015700001D0B1420CD12C2505814381A1F5D04386
:101580008481043B01D0B14244D10780428041E0D4
:10159000514507D1A0F808B0A0F80AE04FF42C514B
:1015A00081810EE0A1F5C856633E06D0222101815B
:1015B00020214181212181812CE02C210181448144
:1015C00083810280458025E0A1F5D04CBCF1040C5C
:1015D00009D051450BD1A0F808B0A0F80AE04FF4AB
:1015E0002C53838121E02C250581448109E0A1F55C
:1015F000C85CBCF1630C12D02223038121234381F8
:1016000020238381A1F5D043043B01D0B14201D115
:1016100002804780BDE8F04F002003F0B1B84FF0E2
:101620002C0CA0F808C04381848105804280E9E742
:10163000E40100202DE9F04FDFF810819346424687
:101640000B46B8F804500C0ADFF804A19189060A89
:101650005289A5F513470AF10209413F19D0A5F5B2
:10166000A647103F15D0A5F5AA47103F1CD0474606
:10167000A5F5C85CBE793F883F1A7F1EBCF1630C9C
:1016800027D0A5F5D04CBCF1040C3AD0012E4AD09D
:101690004AE0AAF800204A46A9F80060C0B2A9F8BA
:1016A0000000AAF800103AE0AAF80020A9F80060AB
:1016B000521CAAF80020C0B2A9F80000AAF8001035
:1016C000A9F80040491CAAF80010D8B2A9F80000F7
:1016D00033E006B9B8B2AAF80020050A4A46A9F8CC
:1016E0000050C7B2A9F80070A9F80050C0B2A9F81C
:1016F0000000AAF80010A9F80040D8B2A9F800002C
:101700000DE0012E00D1B8B2AAF80020050A4A4621
:10171000A9F80050C0B2A9F80000AAF8001014807F
:10172000D8B2108009E0B8B20146104603F0F8FACA
:10173000B8F80C00194603F0F3FAB8F80810AAF844
:101740000010A9F800B0BDE8F08F0000E40100200F
:10175000FE07006C2DE9F8431F4D1F468046AB88FD
:10176000089EA3F5D040043802D1A879012807D0FB
:10177000A2EB0800401C85B20C46DFF8609028E020
:101780002B880846991A0024AC713A462A24A3EB08
:1017900008036C812B27491E5B1EAF8189B29BB267
:1017A0000096FFF7D7FF0120A8716F81AC81BDE8DB
:1017B000F8832146404603F0B7F803F0A7FA00206B
:1017C000494602E00E80401C80B2A842FAD3641C55
:1017D000A4B2BC42EDD9EAE7E40100200008006CA5
:1017E0002DE9F04F01210E029FB0304603F0C6FBF9
:1017F00001214FF4B47003F0D9FB0127ADF83C7020
:101800004FF010088DF83F8003248DF83E400FA95B
:10181000FE48FFF7ADFC4CF23370ADF83C001825E4
:101820008DF83F508DF83E400FA9F948FFF7A0FC16
:101830004FF68070ADF83C008DF83F508DF83E407B
:101840000FA9F448FFF794FC41F20100ADF83C0009
:101850008DF83F508DF83E400FA9EF48FFF788FC08
:1018600000200F21CDE918011A901B901C901D90AB
:101870001090CDE91104CDE91607149006211590BA
:10188000CDE90010CDE90208139004903101CDE9B3
:1018900008010690059007908900CDE90A010C9097
:1018A00017A80D9010A80E906846FFF74DFB012178
:1018B0000620FFF739FB322006F096FA002002F0EE
:1018C00035FFD64DD64C49F24139A88046F6040A78
:1018D00045F2103B45F210574FF6FF78FF2804D32E
:1018E000404502D0B0F5134F70D1D320208002F0D4
:1018F0008DFEA88002F08AFEA88002F087FE08EA2A
:1019000000204146A88002F081FEAA881043A880EA
:1019100048455BD0BF20208002F078FEA88002F00E
:1019200075FEA88002F072FEA88002F06FFE01EA48
:101930000020A88002F06AFEAA881043A8805045C3
:1019400044D0D420208002F061FEA88002F05EFE28
:10195000A88002F05BFE01EA0020A88002F056FE9B
:10196000AA881043A880584530D04FF45A402080B0
:1019700002F04CFEA8804FF45B40208002F046FE4F
:1019800001EA0020A8804FF45C40208002F03EFE77
:10199000AA881043A880B0F5004F7DD0B84215D07A
:1019A000A120208002F032FEA88002F02FFE01EA82
:1019B0000020A88002F02AFEA9880843A0F5AE41C5
:1019C000A880613902D141F66310A880A98895A04A
:1019D000FEF772FCA888924DAD1C48457ED1CF2001
:1019E000208000202880C120288030202880ED2001
:1019F00020806420288003202880122028808120D5
:101A00002880E820208085202880102028807A20C7
:101A10002880CB202080392028802C20288000207E
:101A200028803420288002202880F7202080202051
:101A30002880EA202080002028802880C020208064
:101A40001B202880C120208001202880C5202080E4
:101A5000302028802880C7202080B720288036208A
:101A60002080482028803A20208055202880B120DE
:101A70002080002028801A202880B62020800A207C
:101A80002880A2202880F220208000202880262084
:101A900020800120288000E051E0E02020800F20FD
:101AA00028802A20288028202880082028800E20AE
:101AB00028800820288054202880A92028804320BE
:101AC00028800A2028800F20288000202880288055
:101AD00028802880E1202080002000E031E028805C
:101AE0001520288017202880072028801120288092
:101AF000062028802B202880562028803C20288003
:101B000005202880102028800F2028803F20288052
:101B100028800F2028802B202080002028802880EB
:101B2000012028803F2028802A2020800020288033
:101B300028802880EF2028801120208084E0AF803A
:101B400044E7504576D111202080142006F04CF94E
:101B5000D020208007202880422028801D20288037
:101B6000D1202080002028801A2028800920288069
:101B7000D22020800120288022202880C0202080A0
:101B8000102028803B2028800020288002202880E8
:101B900011202880C520208003202880C820208094
:101BA00000202880252028802120288005202880CA
:101BB000002028800A202880652028802520288071
:101BC00077202880502028800F202880002028801F
:101BD000F820208001202880FE20208000202880FE
:101BE0000220288020202080362020800820288085
:101BF0003A202080552028802B202080002028801B
:101C00002880012028803F20288014E0000C01401B
:101C1000001401400018014000200140E4010020B0
:101C2000FE07006C204C43442049443A25780D0AB5
:101C3000000000000EE02A2020800020288028805C
:101C400001202880DF202880782006F0CDF8292088
:101C500001F02DBC58457DD1ED2020800120288049
:101C6000FE202880EE202080DE2028802120288071
:101C7000F120208001202880DF2020801020288073
:101C8000C42020808F202880C6202080002028802B
:101C9000E220288028802880BF202080AA20288059
:101CA000B02020800D202880002028800D20288052
:101CB00000202880112028800020288019202880DA
:101CC0000020288021202880002028802D202880A6
:101CD000002028803D202880002028805D2028804A
:101CE000002028805D20288000202880B1202080CE
:101CF00080202880002028808B20288000202880B9
:101D00009620288000202880B22020800020288073
:101D1000288002202880002028800320288000209E
:101D20002880B320208000202880288028802880D8
:101D30002880288028802880288028802880288063
:101D40002880288028802880288028802880288053
:101D5000288000E0FEE3288028802880B4202080AE
:101D60008B20288000202880962028800020288032
:101D7000A120288000202880B520208002202880F3
:101D8000002028800320288000202880042028802C
:101D900000202880B6202080002028802880B720BE
:101DA00020800020288028803F2028800020288054
:101DB0005E20288000202880642028800020288041
:101DC0008C20288000202880AC20288000202880BB
:101DD000DC20288000202880702028800020288097
:101DE0009020288000202880EB2028800020288058
:101DF000DC20288000202880B82020800020288037
:101E00002880288028802880288028802880BA2060
:101E10002080242028800020288028802880C1203D
:101E20002080202028800020288054202880002026
:101E30002880FF20288000202880C22020800A20BF
:101E40002880002028800420288000202880C320AB
:101E500020803C202880002028803A2028800020F4
:101E600028803920288000202880372028800020E2
:101E700028803C20288000202880362028800020D0
:101E8000288032202880002028802F2028800020D1
:101E900028802C20288000202880292028800020CD
:101EA00028802620288000202880242028800020C8
:101EB00028802420288000202880232028800020BB
:101EC00028803C2028800020288036202880002080
:101ED000288032202880002028802F202880002081
:101EE00028802C202880002028802920288000207D
:101EF0002880262028800020288024202880002078
:101F0000288024202880002028802320288000206A
:101F10002880C4202080622028800020288005207E
:101F20002880002028808420288000202880F0201D
:101F30002880002028801820288000202880A420C5
:101F40002880002028801820288000202880502009
:101F50002880002028800C2028800020288017203E
:101F60002880002028809520288000202880F320C9
:101F7000288000202880E620288000202880C52096
:101F800020803220288000202880442028800020C3
:101F90002880652028800020288076202880002046
:101FA00028808820288000202880C62020802020AB
:101FB00028800020288017202880002028800120E9
:101FC000288000202880C7202080002028802880AA
:101FD00028802880C8202080002028802880288011
:101FE0002880C92020800020288028802880288000
:101FF00028802880288028802880288028802880A1
:102000002880288028802880E020208016202880B2
:10201000002028801C202880002028802120288063
:102020000020288036202880002028804620288014
:1020300000202880522028800020288064202880CA
:10204000002028807A202880002028808B2028806B
:10205000002028809920288000202880A82028801F
:1020600000202880B920288000202880C4202880D3
:1020700000202880CA20288000202880D2202880A4
:1020800000202880D920288000202880E020288077
:1020900000202880F320288000202880E120208054
:1020A00016202880002028801C20288000202880DE
:1020B00022202880002028803620288000202880A8
:1020C0004520288000202880522028800020288059
:1020D00064202880002028807A2028800020288002
:1020E0008B202880002028809920288000202880AC
:1020F000A820288000202880B9202880002028805F
:10210000C420288000202880CA2028800020288021
:10211000D220288000202880D820288000202880F5
:10212000E020288000202880F320288000202880BC
:10213000E220208005202880002028800B20288095
:10214000002028801B202880002028803420288020
:102150000020288044202880002028804F202880CC
:102160000020288061202880002028807920288075
:102170000020288088202880002028809720288020
:1021800000202880A620288000202880B7202880D2
:1021900000202880C220288000202880C720288096
:1021A00000202880D120288000202880D620288068
:1021B00000202880DD20288000202880F32028802F
:1021C00000202880E320208005202880002028800F
:1021D0000A202880002028801C20288000202880B9
:1021E0003320288000202880442028800020288058
:1021F000502028800020288062202880002028800D
:1022000078202880002028808820288000202880AE
:102210009720288000202880A62028800020288061
:10222000B720288000202880C22028800020288015
:10223000C720288000202880D120288000202880E6
:10224000D520288000202880DD20288000202880BC
:10225000F320288000202880E4202080012028808E
:10226000002028800120288000202880022028804B
:10227000002028802A202880002028803C202880D8
:10228000002028804B202880002028805D20288086
:102290000020288074202880002028808420288026
:1022A000002028809320288000202880A2202880D9
:1022B00000202880B320288000202880BE2028808D
:1022C00000202880C420288000202880CD2028805D
:1022D00000202880D320288000202880DD2028802E
:1022E00000202880F320288000202880E5202080FE
:1022F0000020288028802880288002202880002034
:10230000288029202880002028803C202880002048
:1023100028804B202880002028805D2028800020F5
:102320002880742028800020288084202880002095
:1023300028809320288000202880A2202880002048
:102340002880B320288000202880BE2028800020FC
:102350002880C420288000202880CD2028800020CC
:102360002880D320288000202880DC20288000209E
:102370002880F320288000202880E620208011205B
:1023800028800020288034202880002028805620A3
:102390002880002028807620288000202880772030
:1023A000288000202880662028800020288088201F
:1023B0002880002028809920288000202880BB20A9
:1023C00028800020288099202880002028806620EE
:1023D0002880002028805520288000202880552033
:1023E0002880002028804520288000202880432045
:1023F0002880002028804420288000202880E72092
:10240000208032202880002028805520288000202D
:1024100028807620288000202880662028800020C0
:1024200028806720288000202880672028800020BE
:10243000288087202880002028809920288000205C
:102440002880BB2028800020288099202880002018
:1024500028807720288000202880442028800020A1
:1024600028805620288000202880232028800020D3
:1024700028803320288000202880452028800020C4
:102480002880E8202080002028802880992028802B
:10249000002028808720288000202880882028800D
:1024A000002028807720288000202880662028802F
:1024B000002028808820288000202880AA202880CA
:1024C00000202880BB202880002028809920288098
:1024D0000020288066202880002028805520288021
:1024E0000020288055202880002028804420288033
:1024F0000020288044202880002028805520288023
:1025000000202880E9202080AA2028800020288020
:10251000288028802080AA202880CF2020800020AA
:10252000288028802880288028802880288028806B
:10253000288028802880288028802880288028805B
:102540002880F02020800020288050202880002033
:10255000288000E02CE028802880F32020800020C4
:102560002880F9202080062028801020288029201B
:102570002880002028803A202080552028801120A3
:102580002080642005F030FC292020803520208028
:102590000020288051202080FF2028805320208088
:1025A0002C20288055202080822028802C20FCE3AD
:1025B000B8427DD14FF470435521184602F0B0FB6C
:1025C0004FF20105AA21284602F0AAFB6E1C5221F7
:1025D000304602F0A5FBAF1C0821384602F0A0FBF4
:1025E0004FF204090121484602F09AFB0D214FF4F5
:1025F000304002F095FB0D214BF2010002F090FB00
:102600000D214BF2020002F08BFB4FF4364A3421CD
:10261000504602F085FB34214BF2016002F080FB52
:1026200034214BF2026002F07BFB4FF4314B0D2161
:10263000584602F075FB0D214BF2011002F070FBC1
:102640000D214BF2021002F06BFB34214FF43740A6
:1026500002F066FB34214BF2017002F061FB342181
:102660004BF2027002F05CFB00214FF4324002F0AA
:1026700057FB00214BF2012002F052FB00214BF2EC
:10268000022002F04DFB24214FF4384002F048FBB9
:1026900024214BF6010002F043FB24214BF60200FB
:1026A00002F03EFB01214FF43F4002F039FB00E015
:1026B000FEE30F214FF4334002F032FB0F214BF2C7
:1026C000013002F02DFB0F214BF2023002F028FB0B
:1026D00034214FF4394002F023FB34214BF6011032
:1026E00002F01EFB34214BF6021002F019FB082108
:1026F0004FF4354002F014FB08214BF2015002F078
:102700000FFB08214BF2025002F00AFB03214FF4A9
:10271000424002F005FB24214FF43A4002F000FB56
:1027200024214BF6012002F0FBFA24214BF6022073
:1027300002F0F6FA00214FF43C4002F0F1FA782161
:102740004BF6014002F0ECFA00214BF6024002F099
:10275000E7FA00214FF43D4002F0E2FA78214BF60F
:10276000015002F0DDFA00214BF6025002F0D8FAD7
:1027700000214FF43E4002F0D3FA64214BF6016091
:1027800002F0CEFA00214FF4514002F0C9FA332191
:102790004DF2011002F0C4FA00214DF2021002F0D5
:1027A000BFFA34214DF2031002F0BAFA00214DF2C3
:1027B000041002F0B5FA3A214DF2051002F0B0FA19
:1027C00000214DF2061002F0ABFA4A214DF207103B
:1027D00002F0A6FA00214DF2081002F0A1FA5C21E5
:1027E0004DF2091002F09CFA00214DF20A1002F09D
:1027F00097FA81214DF20B1002F092FA00214DF26E
:102800000C1002F08DFAA6214DF20D1002F088FA9C
:1028100000214DF20E1002F083FAE5214DF20F1067
:1028200002F07EFA01214DF2101002F079FA132124
:102830004DF2111002F074FA01214DF2121002F063
:102840006FFA54214DF2131002F06AFA01214DF291
:10285000141002F065FA82214DF2151002F060FAB0
:1028600001214DF2161002F05BFACA214DF2171049
:1028700002F056FA02214DF2181002F051FA00212E
:102880004DF2191002F04CFA02214DF21A1002F02A
:1028900047FA01214DF21B1002F042FA02214DF2DB
:1028A0001C1002F03DFA34214DF21D1002F038FAEE
:1028B00002214DF21E1002F033FA67214DF21F1073
:1028C00002F02EFA02214DF2201002F029FA8421A2
:1028D0004DF2211002F024FA02214DF2221002F0F2
:1028E0001FFAA4214DF2231002F01AFA02214DF230
:1028F000241002F015FAB7214DF2251002F010FA5B
:1029000002214DF2261002F00BFACF214DF22710D2
:1029100002F006FA02214DF2281002F001FADE213F
:102920004DF2291002F0FCF902214DF22A1002F0BA
:10293000F7F9F2214DF22B1002F0F2F902214DF2DB
:102940002C1002F0EDF9FE214DF22D1002F0E8F905
:1029500003214DF22E1002F0E3F910214DF22F1059
:1029600002F0DEF903214DF2301002F0D9F93321E3
:102970004DF2311002F0D4F903214DF2321002F081
:10298000CFF96D214DF2331002F0CAF900214FF456
:10299000524002F0C5F933214DF2012002F0C0F996
:1029A00000214DF2022002F0BBF934214DF2032048
:1029B00002F0B6F900214DF2042002F0B1F93A21FB
:1029C0004DF2052002F0ACF900214DF2062002F094
:1029D000A7F94A214DF2072002F0A2F900214DF299
:1029E000082002F09DF95C214DF2092002F098F9CF
:1029F00000214DF20A2002F093F981214DF20B20C3
:102A000002F08EF900214DF20C2002F089F9A62186
:102A10004DF20D2002F084F900214DF20E2002F05B
:102A20007FF9E5214DF20F2002F07AF901214DF2F4
:102A3000102002F075F913214DF2112002F070F907
:102A400001214DF2122002F06BF954214DF21320B6
:102A500002F066F901214DF2142002F061F98221A1
:102A60004DF2152002F05CF901214DF2162002F022
:102A700057F9CA214DF2172002F052F902214DF206
:102A8000182002F04DF900214DF2192002F048F90A
:102A900002214DF21A2002F043F901214DF21B20D0
:102AA00002F03EF902214DF21C2002F039F93421E6
:102AB0004DF21D2002F034F902214DF21E2002F0E9
:102AC0002FF967214DF21F2002F02AF902214DF261
:102AD000202002F025F984214DF2212002F020F976
:102AE00002214DF2222002F01BF9A4214DF22320F5
:102AF00002F016F902214DF2242002F011F9B7215B
:102B00004DF2252002F00CF902214DF2262002F0B0
:102B100007F9CF214DF2272002F002F902214DF2F0
:102B2000282002F0FDF8DE214DF2292002F0F8F80D
:102B300002214DF22A2002F0F3F8F2214DF22B206F
:102B400002F0EEF802214DF22C2002F0E9F8FE210D
:102B50004DF22D2002F0E4F803214DF22E2002F078
:102B6000DFF810214DF22F2002F0DAF803214DF2A8
:102B7000302002F0D5F833214DF2312002F0D0F8A8
:102B800003214DF2322002F0CBF86D214DF23320BB
:102B900002F0C6F800214FF4534002F0C1F833218F
:102BA0004DF2013002F0BCF800214DF2023002F08B
:102BB000B7F834214DF2033002F0B2F800214DF2A3
:102BC000043002F0ADF83A214DF2053002F0A8F8D9
:102BD00000214DF2063002F0A3F84A214DF20730F1
:102BE00002F09EF800214DF2083002F099F85C21C5
:102BF0004DF2093002F094F800214DF20A3002F053
:102C00008FF881214DF20B3002F08AF800214DF24D
:102C10000C3002F085F8A6214DF20D3002F080F85C
:102C200000214DF20E3002F07BF8E5214DF20F301D
:102C300002F076F801214DF2103002F071F8132104
:102C40004DF2113002F06CF801214DF2123002F019
:102C500067F854214DF2133002F062F801214DF271
:102C6000143002F05DF882214DF2153002F058F870
:102C700001214DF2163002F053F8CA214DF21730FF
:102C800002F04EF802214DF2183002F049F800210E
:102C90004DF2193002F044F802214DF21A3002F0E0
:102CA0003FF801214DF21B3002F03AF802214DF2BB
:102CB0001C3002F035F834214DF21D3002F030F8AE
:102CC00002214DF21E3002F02BF867214DF21F3029
:102CD00002F026F802214DF2203002F021F8842182
:102CE0004DF2213002F01CF802214DF2223002F0A8
:102CF00017F8A4214DF2233002F012F802214DF210
:102D0000243002F00DF8B7214DF2253002F008F81A
:102D100002214DF2263002F003F8CF214DF2273088
:102D200001F0FEFF02214DF2283001F0F9FFDE2113
:102D30004DF2293001F0F4FF02214DF22A3001F06A
:102D4000EFFFF2214DF22B3001F0EAFF02214DF2AC
:102D50002C3001F0E5FFFE214DF22D3001F0E0FFB7
:102D600003214DF22E3001F0DBFF10214DF22F3008
:102D700001F0D6FF03214DF2303001F0D1FF3321B5
:102D80004DF2313001F0CCFF03214DF2323001F031
:102D9000C7FF6D214DF2333001F0C2FF00214FF427
:102DA000544001F0BDFF332100E080E34DF20140CB
:102DB00001F0B6FF00214DF2024001F0B1FF3421D5
:102DC0004DF2034001F0ACFF00214DF2044001F050
:102DD000A7FF3A214DF2054001F0A2FF00214DF27C
:102DE000064001F09DFF4A214DF2074001F098FF97
:102DF00000214DF2084001F093FF5C214DF20940A3
:102E000001F08EFF00214DF20A4001F089FF81217F
:102E10004DF20B4001F084FF00214DF20C4001F017
:102E20007FFFA6214DF20D4001F07AFF00214DF207
:102E30000E4001F075FFE5214DF20F4001F070FFEB
:102E400001214DF2104001F06BFF13214DF21140B2
:102E500001F066FF01214DF2124001F061FF5421A3
:102E60004DF2134001F05CFF01214DF2144001F0DE
:102E700057FF82214DF2154001F052FF01214DF222
:102E8000164001F04DFFCA214DF2174001F048FFF6
:102E900002214DF2184001F043FF00214DF219408C
:102EA00001F03EFF02214DF21A4001F039FF00E02F
:102EB000FFE201214DF21B4001F032FF02214DF2F1
:102EC0001C4001F02DFF34214DF21D4001F028FF80
:102ED00002214DF21E4001F023FF67214DF21F40F9
:102EE00001F01EFF02214DF2204001F019FF842164
:102EF0004DF2214001F014FF02214DF2224001F079
:102F00000FFFA4214DF2234001F00AFF02214DF2F0
:102F1000244001F005FFB7214DF2254001F000FFEC
:102F200002214DF2264001F0FBFECF214DF2274059
:102F300001F0F6FE02214DF2284001F0F1FEDE2103
:102F40004DF2294001F0ECFE02214DF22A4001F041
:102F5000E7FEF2214DF22B4001F0E2FE02214DF29C
:102F60002C4001F0DDFEFE214DF22D4001F0D8FE97
:102F700003214DF22E4001F0D3FE10214DF22F40DF
:102F800001F0CEFE03214DF2304001F0C9FE3321A5
:102F90004DF2314001F0C4FE03214DF2324001F008
:102FA000BFFE6D214DF2334001F0BAFE00214FF417
:102FB000554001F0B5FE33214DF2015001F0B0FE55
:102FC00000214DF2025001F0ABFE34214DF20350CE
:102FD00001F0A6FE00214DF2045001F0A1FE3A21BD
:102FE0004DF2055001F09CFE00214DF2065001F01B
:102FF00097FE4A214DF2075001F092FE00214DF25A
:10300000085001F08DFE5C214DF2095001F088FE60
:1030100000214DF20A5001F083FE81214DF20B5048
:1030200001F07EFE00214DF20C5001F079FEA62148
:103030004DF20D5001F074FE00214DF20E5001F0E2
:103040006FFEE5214DF20F5001F06AFE01214DF2B5
:10305000105001F065FE13214DF2115001F060FE99
:1030600001214DF2125001F05BFE54214DF213503C
:1030700001F056FE01214DF2145001F051FE822163
:103080004DF2155001F04CFE01214DF2165001F0A9
:1030900047FECA214DF2175001F042FE02214DF2C7
:1030A000185001F03DFE00214DF2195001F038FE9C
:1030B00002214DF21A5001F033FE01214DF21B5056
:1030C00001F02EFE02214DF21C5001F029FE3421A8
:1030D0004DF21D5001F024FE02214DF21E5001F070
:1030E0001FFE67214DF21F5001F01AFE02214DF222
:1030F000205001F015FE84214DF2215001F010FE08
:1031000002214DF2225001F00BFEA4214DF223507A
:1031100001F006FE02214DF2245001F001FEB7211C
:103120004DF2255001F0FCFD02214DF2265001F038
:10313000F7FDCF214DF2275001F0F2FD02214DF2B3
:10314000285001F0EDFDDE214DF2295001F0E8FD9F
:1031500002214DF22A5001F0E3FDF2214DF22B50F5
:1031600001F0DEFD02214DF22C5001F0D9FDFE21CF
:103170004DF22D5001F0D4FD03214DF22E5001F0FF
:10318000CFFD10214DF22F5001F0CAFD03214DF269
:10319000305001F0C5FD33214DF2315001F0C0FD3A
:1031A00003214DF2325001F0BBFD6D214DF2335041
:1031B00001F0B6FD00214FF4564001F0B1FD33217E
:1031C0004DF2016001F0ACFD00214DF2026001F012
:1031D000A7FD34214DF2036001F0A2FD00214DF264
:1031E000046001F09DFD3A214DF2056001F098FD6B
:1031F00000214DF2066001F093FD4A214DF2076077
:1032000001F08EFD00214DF2086001F089FD5C2186
:103210004DF2096001F084FD00214DF20A6001F0D9
:103220007FFD81214DF20B6001F07AFD00214DF20E
:103230000C6001F075FDA6214DF20D6001F070FDEE
:1032400000214DF20E6001F06BFDE5214DF20F60A3
:1032500001F066FD01214DF2106001F061FD1321C6
:103260004DF2116001F05CFD01214DF2126001F0A0
:1032700057FD54214DF2136001F052FD01214DF232
:10328000146001F04DFD82214DF2156001F048FD02
:1032900001214DF2166001F043FDCA214DF2176085
:1032A00001F03EFD02214DF2186001F039FD0021D0
:1032B0004DF2196001F034FD02214DF21A6001F067
:1032C0002FFD01214DF21B6001F02AFD02214DF27C
:1032D0001C6001F025FD34214DF21D6001F020FD40
:1032E00002214DF21E6001F01BFD67214DF21F60AF
:1032F00001F016FD02214DF2206001F011FD842144
:103300004DF2216001F00CFD02214DF2226001F02E
:1033100007FDA4214DF2236001F002FD02214DF2D0
:10332000246001F0FDFCB7214DF2256001F0F8FCAE
:1033300002214DF2266001F0F3FCCF214DF227600F
:1033400001F0EEFC02214DF2286001F0E9FCDE21E3
:103350004DF2296001F0E4FC02214DF22A6001F0F7
:10336000DFFCF2214DF22B6001F0DAFC02214DF27C
:103370002C6001F0D5FCFE214DF22D6001F0D0FC57
:1033800003214DF22E6001F0CBFC10214DF22F6095
:1033900001F0C6FC03214DF2306001F0C1FC332185
:1033A0004DF2316001F0BCFC03214DF2326001F0BE
:1033B000B7FC6D214DF2336001F0B2FC5521184687
:1033C00001F0AEFCAA21284601F0AAFC52213046A9
:1033D00001F0A6FC0821384601F0A2FC0021484675
:1033E00001F09EFCCC21584601F09AFC00214BF2E2
:1033F000011001F095FC0521504601F091FC70216F
:103400004FF4374001F08CFC70214BF2017001F059
:1034100087FC01214FF4384001F082FC03214BF678
:10342000010001F07DFC03214BF6020001F078FC65
:1034300003214BF6030001F073FC02214FF43C40E2
:1034400001F06EFC00214BF6014001F069FC002107
:103450004BF6024001F064FCD0214FF4494001F0EA
:103460005FFC02214CF6011001F05AFC50214CF691
:10347000021001F055FC50214CF6031001F050FCF5
:1034800050214CF6041001F04BFC00214FF4545035
:1034900001F046FC55214FF4685001F041FC4FF417
:1034A00088502080782004F0B9FC4FF4245020800C
:1034B000FDE3A0F513414FF4E06940F23F1A4FF4E9
:1034C000274B25392ED0A0F5134140F20777283934
:1034D0007DD0A0F513414FF4887B203978D0A0F53A
:1034E0001341313975D0A0F5A841083972D0A0F543
:1034F000A8514FF4407B05396DD0A0F53541053911
:103500006AD0A0F54541053967D0A0F58A41313927
:103510007ED0A0F58A4135397BD0A0F5C8516339FA
:1035200078D0C5E747F6F001E52001F0F9FB314618
:10353000012001F0F5FB4946022001F0F1FB41F2C8
:103540003001032001F0ECFB0021042001F0E8FB36
:1035500040F20221082001F0E3FB0021092001F0E4
:10356000DFFB00210A2001F0DBFB00210C2001F031
:10357000D7FB00210D2001F0D3FB00210F2001F02B
:10358000CFFB0021102001F0CBFB0721112001F01F
:10359000C7FB0021122001F0C3FB0021132001F022
:1035A000BFFB0021072001F0BBFB41F2906110201E
:1035B00001F0B6FB40F22721112001F0B1FB9D2163
:1035C000122001F0ADFB4FF4C851132006E081E05A
:1035D0003DE1E2E1B8E253E3FEE3FEE301F0A0FBEC
:1035E0002521292001F09CFB0D212B2001F098FBC7
:1035F0000721302001F094FB40F20331312001F02B
:103600008FFB0321322001F08BFB40F2062102E008
:10361000FEE3FEE3FEE3352001F082FB08213620C5
:1036200001F07EFB40F20641372001F079FB4FF4B8
:103630004171382001F074FB0721392001F070FB43
:1036400040F202613C2001F06BFB08213D2001F0BB
:1036500067FB0021502001F063FBEF21512001F0B6
:103660005FFB0021522001F05BFB5146532001F02B
:1036700057FB5946602001F053FB0121612001F006
:103680004FFB00216A2001F04BFB0021802001F05C
:1036900047FB0021812001F043FB0021822001F043
:1036A0003FFB0021832001F03BFB0021842001F03F
:1036B00037FB0021852001F033FB1021902001F021
:1036C0002FFB4FF4C061922001F02AFB40F233112E
:1036D0000720FDE341F28F01EC2001F021FB41F2D4
:1036E0003421EF2001F01CFB3146012001F018FBD2
:1036F0004946022001F014FB41F23001032001F0A1
:103700000FFB0021042001F00BFB40F202210820F6
:1037100001F006FB0021092001F002FB00210A2034
:1037200001F0FEFA01210C2001F0FAFA00210D202F
:1037300001F0F6FA00210F2001F0F2FA002110202A
:1037400001F0EEFA0721112001F0EAFA002112201F
:1037500001F0E6FA0021132001F0E2FA012107202E
:1037600001F0DEFA322004F03FFB41F290411020DC
:1037700001F0D6FA40F22721112001F0D1FA3220CF
:1037800004F032FB8A21122001F0CAFA322004F040
:103790002BFB4FF4D051132001F0C2FA062129204F
:1037A00001F0BEFA0D212B2001F0BAFA322004F00C
:1037B0001BFB0021202001F0B3FA0021212001F0A1
:1037C000AFFA322004F010FB0021302001F0A8FAFB
:1037D00040F20461312001F0A3FA40F205313220B9
:1037E00001F09EFA0021352001F09AFA40F60941D5
:1037F000362001F095FA4FF40171372001F090FA6C
:1038000040F20131382001F08BFA3946392001F0BD
:1038100087FA00213C2001F083FA40F60A213D207E
:1038200001F07EFA322004F0DFFA0021502001F08E
:1038300077FAEF21512001F073FA0021522001F0B4
:103840006FFA5146532001F06BFA594651E10021BD
:10385000084601F065FA3146012001F061FA494657
:10386000022001F05DFA41F23001032001F058FA24
:103870000021042001F054FA40F20221082001F056
:103880004FFA0021092001F04BFA00210A2001F033
:1038900047FA01210C2001F043FA00210D2001F02C
:1038A0003FFA00210F2001F03BFA322004F09CFA8D
:1038B00040F20111072001F033FA322004F094FAAB
:1038C0004FF48651102001F02BFA0721112001F04E
:1038D00027FA5B465946122001F022FA4FF4306174
:1038E000132001F01DFA0021292001F019FA44F2F9
:1038F00010012B2001F014FA0021502001F010FAE1
:10390000EF21512001F00CFA0021522001F008FAB9
:103910005146532001F004FA4FF41C51602001F08D
:10392000FFF90121612001F0FBF900216A2001F07B
:10393000F7F90021802001F0F3F90021812001F046
:10394000EFF90021822001F0EBF90021832001F042
:10395000E7F90021842001F0E3F90021852001F03E
:10396000DFF91021902001F0DBF90021922001F015
:10397000D7F90121932001F0D3F91946952001F0E0
:10398000CFF90021972001F0CBF90021982001F018
:10399000C7F940F27311072085E341F21401E720D3
:1039A00001F0BEF93146012001F0BAF94FF400717F
:1039B000022001F0B5F941F23801032001F0B0F91D
:1039C00040F20221082001F0ABF90021092001F0AA
:1039D000A7F900210A2001F0A3F900210C2001F031
:1039E0009FF900210D2001F09BF900210F2001F02B
:1039F00097F90021102001F093F90721112001F01F
:103A00008FF90021122001F08BF90021132001F021
:103A100087F9C82004F0E8F941F29061102001F024
:103A20007FF940F22721112001F07AF9322004F0C9
:103A3000DBF90C21122001F073F9322004F0D4F9E3
:103A40004FF40061132001F06BF91121292001F0DE
:103A500067F90B212B2001F063F9322004F0C4F93F
:103A60000021202001F05CF953465146212001F04D
:103A700057F90021302001F053F94FF483742146A7
:103A8000312001F04DF90021322001F049F94FF4C5
:103A90000171352001F044F941F20A61362001F04C
:103AA0003FF93946372001F03BF92146382001F033
:103AB00037F93946392001F033F940F202413C2010
:103AC00001F02EF940F60F413D2001F029F90021C7
:103AD000502001F025F9EF21512001F021F90021BA
:103AE000522001F01DF91946532001F019F94FF445
:103AF0001C51602001F014F90121612001F010F93E
:103B000000216A2001F00CF90021802001F008F961
:103B10000021812001F004F90021822001F000F948
:103B20000021832001F0FCF80021842001F0F8F846
:103B30000021852001F0F4F81021902001F0F0F828
:103B40004FF4C0619220FDE33146012001F0E8F816
:103B50004946022001F0E4F841F23001032001F06F
:103B6000DFF80021042001F0DBF840F207210820F3
:103B700001F0D6F80021092001F0D2F800210A2036
:103B800001F0CEF800210C2001F0CAF800210D2030
:103B900001F0C6F800210F2001F0C2F8142004F053
:103BA00023F941F2B061102001F0BAF8012111208F
:103BB00001F0B6F80121172001F0B2F84FF49C7122
:103BC000122001F0ADF84FF40061132001F0A8F8C5
:103BD0000921292001F0A4F809212A2001F0A0F8E8
:103BE0000021A42001F09CF80021502001F098F859
:103BF000EF21512001F094F80021522001F090F8BB
:103C00005146532001F08CF84FF41C51602001F014
:103C100087F80121612001F083F800216A2001F07A
:103C20007FF80021802001F07BF80021812001F045
:103C300077F80021822001F073F80021832001F041
:103C40006FF80021842001F06BF80021852001F03D
:103C500067F81321902001F063F80021922001F011
:103C60005FF80321932001F05BF85946952001F09D
:103C700057F840F27311072001F052F8322011E199
:103C80000021072001F04CF8322004F0ADF84FF489
:103C90008E71122001F044F80121A42001F040F8B7
:103CA0000F21082001F03CF808210A2000E07BE306
:103CB00001F036F808210D2001F032F839463020A5
:103CC00001F02EF80721312001F02AF840F20361BB
:103CD000322001F025F84C464946332001F020F807
:103CE00040F20221342001F01BF80221352001F0BE
:103CF00017F841F60F71362001F012F839463720D7
:103D000001F00EF80021382001F00AF800213920D6
:103D100001F006F839463A2001F002F800213B2074
:103D200000F0FEFF07213C2000F0FAFF00213D20BB
:103D300000F0F6FF322004F057F80121072000F0D0
:103D4000EFFF0121172000F0EBFF322004F04CF8C8
:103D50004FF4BD51102000F0E3FF40F21721112075
:103D600000F0DEFF4FF48F71122000F0D9FF4FF406
:103D70007061132000F0D4FF00212A2000F0D0FF52
:103D80000A21292000F0CCFF4FF49F71122000F08F
:103D9000C7FF0021502000F0C3FFEF21512000F0A9
:103DA000BFFF0021522000F0BBFF5146532000F01E
:103DB000B7FF4FF41C51602000F0B2FF01216120D9
:103DC00000F0AEFF00216A2000F0AAFF0021802051
:103DD00000F0A6FF002101E067E065E1812000F02E
:103DE0009FFF0021822000F09BFF0021832000F034
:103DF00097FF0021842000F093FF0021852000F030
:103E00008FFF1321902000F08BFF5946922002E093
:103E100013E2CAE271E300F083FF0521932000F072
:103E20007FFF0021952000F07BFF0021972000F00C
:103E300077FF0021982000F073FF3146012000F049
:103E40006FFF2146022000F06BFF41F23801032092
:103E500000F066FF0021042000F062FF00210C202A
:103E600000F05EFF00210F2000F05AFF002120200B
:103E700000F056FF0021212000F052FF21210720F1
:103E800000F04EFF142003F0AFFF6121072000F087
:103E900047FF142003F0A8FF40F27311072000F041
:103EA0003FFF142003F0A0FFA1E30021084600F02B
:103EB00037FF0021084600F033FF0021084600F0DC
:103EC0002FFF0021084600F02BFF0121A42000E075
:103ED000E5E000F025FF142003F086FF4FF41C54AA
:103EE0002146602000F01CFF40F2022529460820F0
:103EF00000F016FF4FF40571302000F011FF43F27F
:103F00001571312000F00CFF40F20461322000F006
:103F100007FF40F61661332000F002FF42F2112144
:103F2000342000F0FDFE4FF4A851352000F0F8FEDB
:103F300048F20751362000F0F3FE41F207413720E6
:103F400000F0EEFE41F20341382000F0E9FE2021AE
:103F5000392000F0E5FE1A21902000F0E1FE00215A
:103F6000102000F0DDFE0721112000F0D9FE002115
:103F7000122000F0D5FE0021132000F0D1FE142005
:103F800003F032FF4FF4E661102000F0C9FE40F26A
:103F90003711112000F0C4FE142003F025FF4FF468
:103FA000DC71122000F0BCFE142003F01DFF4FF462
:103FB0007061132000F0B4FE80212A2000F0B0FED2
:103FC0004821292000F0ACFE142003F00DFF3146FB
:103FD000012000F0A5FE4946022000F0A1FE41F2BA
:103FE0003801032000F09CFE2946082000F098FECE
:103FF00000210A2000F094FE00210C2000F090FE29
:1040000000210D2000F08CFE30210E2000F088FEF3
:104010000021502000F084FEEF21512000F080FEAE
:104020000021522000F07CFE5146532000F078FE23
:104030002146602000F074FE0121612000F070FE36
:1040400000216A2000F06CFE1121902000F068FE33
:104050004FF4C061922000F063FE40F202419320D1
:1040600000F05EFE0221942000F05AFE142003F0BE
:10407000BBFE0121072000F053FE142003F0B4FE24
:104080006121072000F04CFE40F27311072000F080
:1040900047FE0021202000F043FE0021212000F0F7
:1040A0003FFE222100207DE10021084600F038FE7D
:1040B0000021084600F034FE142003F095FE002194
:1040C000084600F02DFE0021084600F029FE0021E0
:1040D000084600F025FE0021084600F021FE0121DF
:1040E000A42000F01DFE142003F07EFE4FF41C51AE
:1040F000602000F015FE40F60601082000F010FEDA
:1041000040F203731946302000F00AFE01213120ED
:1041100000F006FE0421322000F002FE4FF481710F
:10412000332000F0FDFD5C465946342000F0F8FDD8
:1041300040F20311352000F0F3FD1F21362000F07E
:10414000EFFD1946372000F0EBFD0121382000F08B
:10415000E7FD0421392000F0E3FD1521902000F057
:10416000DFFD4FF48261102000F0DAFD40F24721BC
:10417000112000F0D5FD4FF4DE71122000F0D0FDCB
:104180004FF46061132000F0CBFD782003F02CFE8B
:104190003146012000F0C4FD4FF40071022000F010
:1041A000BFFD41F23001032000F0BAFD08210A20D2
:1041B00000F0B6FD00210C2000F0B2FD20210E2001
:1041C00000F0AEFD00210F2000F0AAFD002120200C
:1041D00000F0A6FD0021212000F0A2FD3D212A20B3
:1041E00000F09EFD142003F0FFFD2D21292000F09A
:1041F00097FD0021502000F093FD4DF2EF0151207A
:1042000000F08EFD0021522000F08AFD514653201F
:1042100000F086FD0021612000F082FD00216A206F
:1042200000F07EFD2146922000F07AFD05219320CA
:1042300000F076FD3146FFF7AEBB0121002000F013
:104240006FFD0A2003F0D0FD41F22861102000F03C
:1042500067FD0E21122000F063FD40F63921132086
:1042600000F05EFD0A2003F0BFFD4021112000F0A8
:1042700057FD5021152000F053FD0A2003F0B4FD36
:104280001E21122000F04CFD0A2003F0ADFD4FF47A
:10429000B151102000F044FD42F63921132000F006
:1042A0003FFD0A2003F0A0FD3146012000F038FD5B
:1042B0005946022000F034FD41F23801032000F09D
:1042C0002FFD40F20221082000F02AFD08210A20DB
:1042D00000F026FD0021302000F022FD40F20241D6
:1042E000312000F01DFD4FF48371322000F018FDE5
:1042F00040F20351332000F013FD4FF4827134205B
:1043000000F00EFD40F20131352000F009FD394684
:10431000362000F005FD40F20531372000F000FDA9
:104320004FF40271382000F0FBFC40F60B7139208D
:1043300000F0F6FC0221412000F0F2FC4FF41C5189
:10434000602000E0D4E000F0EBFC0121612000F0EF
:10435000E7FC4FF40471902000F0E2FC4FF485710B
:10436000922000F0DDFC0421932000F0D9FC3146BE
:10437000A02000F0D5FC0121072000F0D1FC212174
:10438000072000F0CDFC2321072000F0C9FC3321D9
:10439000072000F0C5FC40F23311072000F0C0FCFC
:1043A0000021A02000F0BCFC21E13021152000F00C
:1043B000B7FC10219A2000F0B3FC2021112000F05E
:1043C000AFFC43F22841102000F0AAFC0221122089
:1043D00000F0A6FC41F23801132000F0A1FC2820D7
:1043E00003F002FD1221084600F09AFC282003F099
:1043F000FBFC43F22041102000F092FC43F2380114
:10440000132000F08DFC462003F0EEFC002130204C
:1044100000F086FC40F20241312000F081FC40F2C5
:104420000731322000F07CFC4FF44171332000F062
:1044300077FC0421342000F073FC40F20141352068
:1044400000F06EFC3946362000F06AFC40F205317F
:10445000372000F065FC4FF4C2631946382000F0A5
:104460005FFC1946392000F05BFC3146012000F06A
:1044700057FC5946022000F053FC41F23001032062
:1044800000F04EFC40F60801082000F049FC08212D
:104490000A2000F045FC4FF41C51602000F040FC65
:1044A0000121612000F03CFC4FF49F71902000F04E
:1044B00037FC3146922000F033FC3146932000F067
:1044C0002FFC4FF44051A02000F02AFC1021A32023
:1044D00000F026FC0121072000F022FC212107200A
:1044E00000F01EFC2321072000F01AFC33210720D6
:1044F00000F016FC40F233119DE6E22020802320DC
:1045000028800220288004202880642003F086FC74
:10451000E0202080012028800A2003F065FCE020B4
:104520002080032028800C2003F05EFC01202080E6
:104530000A2003F059FCE620208003202880FF2079
:1045400028802880B02020802020288000202880FB
:104550000320288040F21F3028800120288040F26C
:10456000DF10288000202880B420208004202880AC
:1045700040F21F40288000202880D2202880002080
:104580002880288028802880B6202080022028804B
:104590004FF40370288000202880222028800920E2
:1045A0002880002028802880F02020800320288078
:1045B00029202080D020208000202880BE2020803C
:1045C00005202880FE20288001202880FF202880C8
:1045D00000202880B82020800F20288001202880FB
:1045E000BA20208001202880642000F0ABF8002051
:1045F000FCF786FF04490120C1F880014046FCF722
:1046000049FF1FB0BDE8F08F00802142034808B584
:104610000088ADF80000BDF8000008BD0008006C7F
:104620002DE9F0413F4E002425463288824202D9CE
:1046300072888A4202D80020BDE8F08100F074F947
:10464000B08849F24138384B41F6631745F21031D2
:1046500045F21052404508D0A0F5D04CBCF1040CF6
:1046600003D0884201D0B84202D14FF02E0C06E0B0
:10467000904202D14FF4385C01E04FF0220CA3F8D5
:1046800000C0A0F51343203B03D10220401EC0B25E
:10469000FCD2FFF7BBFFB388BB42CDD00220401E47
:1046A000C0B2FCD2FFF7B2FF0746B088404503D046
:1046B000884201D090420BD10220401EC0B2FCD2F1
:1046C000FFF7A4FF0546F8B24FF6FF7303EA002494
:1046D000B088A0F51343253B1DD0A0F58A43353B98
:1046E00019D0A0F58A43313B15D0A0F53543053BE1
:1046F00011D0A0F54543053B0DD0404503D088427D
:1047000001D0904209D1F80AC002A10A40EA411042
:1047100040EAD52090E738468EE73846BDE8F041BC
:10472000FCF7AEBEE4010020FE07006C044910B5A2
:104730000880052003F072FBBDE81040FFF766BF5C
:10474000FE07006C0C4A10B5BE211180941C052197
:10475000218008F04CF94FF06632084B08F05AF906
:1047600008F018F9208001202080FF202080002000
:104770002080208010BD0000FE07006C66660440AB
:10478000F0B5674E00233146B279898846F60407B2
:1047900041F66314012A01D02AB11DE0B9421BD0B1
:1047A000A14202D118E0A14216D1082814D2DFE8B4
:1047B00000F00406080A0C0E101206200CE0072078
:1047C0000AE0042008E0052006E0012004E00020C3
:1047D00002E0032000E00220A1F5134C45F2103264
:1047E00045F21055BCF1410C07D0B94205D09142B9
:1047F00003D0A94201D0A14275D1082812D2DFE826
:1048000000F0110406080A0C0E1080230AE0402371
:1048100008E0C02306E0202304E0602302E0A02398
:1048200000E0E023A94202D14FF4585000E03620C6
:10483000914205D0A94203D0A14201D043F0080320
:10484000B94201D143F00203194600F069FAB28877
:10485000A2420AD098063088718802D5884202D3D5
:1048600003E0884201D9318070802E48811CAA4221
:104870007289028021D100230B80531C0380002306
:104880000B80931C038033885B1E1C0A0C80D21C97
:104890000280DAB20A80B289028000230B80531CA6
:1048A000038000230B80931C038073885B1E1C0A0B
:1048B0000C80D21C0280D8B212E000220A800A804A
:1048C0003288521E130A0B80D2B20A80B28902804B
:1048D0000020088008807088401E020A0A80C0B24A
:1048E0000880F0BDFFE7082812D2DFE800F00406D8
:1048F00008110A0C0E1030230AE0102308E02023D0
:1049000006E0382304E0282302E0182300E008230F
:10491000BDE8F040032043F4805100F001BA0000EC
:10492000E4010020FE07006C2DE9F04F4E4F0B46CE
:104930003A46BD880C0ADFF834B191895289A5F551
:1049400013464FEA102C0BF1020A413E1DD0A5F58B
:10495000A646103E19D03E46BE4696F806903688CA
:10496000A5F5D047A6EB0008A8F10108043F17D031
:10497000A5F5C857633F28D0A5F5AA477646103F4E
:1049800051D0B9F1010F63D064E0ABF8002052467A
:10499000AAF800C0C0B2AAF80000ABF800100FE0FF
:1049A000B9F1010F01D11FFA88F0ABF80020050A18
:1049B0005246AAF80050C0B2AAF80000ABF80010A6
:1049C0001480D8B21080BDE8F08FB9F1000F1BD071
:1049D000ABF800205246AAF800C0C0B2AAF8000006
:1049E000761E300AAAF80000F0B21080ABF8001072
:1049F00011461480D8B21080BEF80200401E020A90
:104A00000A80C0B20880DEE71FFA88F0ABF8002009
:104A100000265246AAF80060AAF80060060AAAF822
:104A20000060C0B2E1E7ABF80020AAF800C0521C59
:104A3000ABF80020C0B2AAF80000ABF80010AAF84A
:104A40000040491CABF80010D8B2AAF80000BAE741
:104A50001FFA88F00146104600F062F9B089BDE8FF
:104A6000F04F194600F05CB9E4010020FE07006C2D
:104A70002DE9FC4F044691464844401E86B2C818B2
:104A8000401E83B2009004EB0900401EC0F3072EC5
:104A9000DFF850C100980D46C0F3072B6046BCF804
:104AA00004204FEA112881894089A2F513474FEA73
:104AB000142A413F10D0A2F5A647103F0CD0A2F512
:104AC000D047043F08D09CF8067041F6631C01975C
:104AD000012F13D1624511D1434F3880B81CA0F883
:104AE00000A0E2B20280A0F800E0F2B202803980B9
:104AF000A0F80080E9B2018059461CE0394F6245B8
:104B00003F881DD1A7EB0902121B374C009B92B2C4
:104B10009BB22080160AA01C0680D6B206804A44AA
:104B2000521E160A0680D2B202802180A0F80080B0
:104B3000E9B20180190A0180D9B20180BDE8FC8F79
:104B4000A2F5A04CBCF5A26C1FD0019801283FD063
:104B5000B04621462E4650204FF0510A4FF05209E0
:104B6000532700F0DDF84146504600F0D9F83146B1
:104B7000484600F0D5F81946384600F0D1F82946E5
:104B80002046BDE8FC4FFFF7CFBE174A1080971CA8
:104B9000A7F800A000F1010CA2F800C0E4B23C802C
:104BA000841C1480A7F800E0C01C1080F0B238808C
:104BB0001180A7F80080481C1080E8B23880881C5B
:104BC0001080A7F800B0C91C1180D8B23880B5E7B2
:104BD000B81B401E86B2381B9846401E294683B239
:104BE000B9E70000E4010020FE07006C2DE9F84F52
:104BF00082461F460C468B46580700D0012000EB2A
:104C0000D70079084843203AC0B202F0FF090026D5
:104C1000009041E00C2F10D0102F12D0182F3ED151
:104C2000204909EBC90001EB80004FF00008855DC9
:104C300028060AD51C4802880BE009EB49001B49ED
:104C4000F1E71B4901EB0910EFE70A9828B916486C
:104C5000428821465046FCF7EDFC6806050E1548D3
:104C6000641CA4B24088A04219D9A4EB0B00B8423E
:104C700009D10AF101001FFA80FA0E485C4601884A
:104C800051450CD906E008F1010000F0FF08B8F129
:104C9000080FCDD3761CF6B200988642BAD3BDE891
:104CA000F88F000012DD000816000020AED20008C8
:104CB00022D70008E40100202DE9F84F044600F057
:104CC000FF0810190D46DDE90A761FFA80FA581917
:104CD0001FFA80F94FF0000B11E0544502D3E81998
:104CE000444685B24D450FD23B4629462046CDF875
:104CF00000B0FFF77BFF04EB570084B2761C3278DC
:104D0000A2F120005E28E8D9BDE8F88F02480349E7
:104D10000089088070470000E4010020FE07006C55
:104D2000024A1080901C018070470000FE07006C52
:104D300038B50121482000F039F92024ADF80040B1
:104D400010208DF8030003200B4D8DF802006946FA
:104D50002846FCF70DFA20212846FCF78AFAADF820
:104D60000040064C69462046FCF702FA2021204606
:104D7000FCF77FFA38BD0000000C0140001801402C
:104D8000FEE7704730B50F23C27801780125F2B1F4
:104D9000144A126801F1E02102F4E062C2F5E06217
:104DA000120AC2F10404D3404278A24084781C4025
:104DB0001443220181F80024007800F01F018D4087
:104DC0004009800000F1E020C0F8005130BD01F042
:104DD0001F0085404809800000F1E020C0F88051A4
:104DE00030BD00000CED00E00249084302490860B4
:104DF000704700000000FA050CED00E0F8B5002453
:104E0000012140F23D1000F0D1F84FF48075ADF86B
:104E1000005048268DF803600320354F8DF80200BE
:104E200069463846FCF7A4F929463846FCF721FACA
:104E30001820ADF800002F4F10258DF8035069465B
:104E40003846FCF795F918213846FCF712FAFF208E
:104E5000ADF800008DF8036069462748FCF788F933
:104E60004020ADF80000254E8DF8035069463046CD
:104E7000FCF77EF940213046FCF7FBF94FF4404641
:104E8000ADF800608DF803501D4D69462846FCF7CB
:104E90006FF931462846FCF7ECF901211948FCF777
:104EA000B5F900F0D9F88021122000F00BFA08B112
:104EB0000120F8BD322002F097FF0B2000F05EF9D0
:104EC000732804D10A2000F059F9762801D0022075
:104ED000F8BD0D4D05EB4400417815F8140000F0C5
:104EE000F1F9641CA4B2A82CF4D30020F8BD000092
:104EF00000080140000C0140001001400014014076
:104F000000200140000230006EEA00082DE9F04167
:104F1000054600EB420086B201EB430084B20F4627
:104F2000B4F5447F02D9A4F54474A4B2032000F080
:104F300025F906F00302294600F0F00062F39F0114
:104F40000143032000F0BEF9C5F38701192000F0EA
:104F5000B9F9C6F387011A2000F0B4F9322000F045
:104F60000DF9C7F3C701172000F0ACF9C4F3C7016E
:104F7000BDE8F041182000F0A5B97047044A0029A7
:104F8000516901D0014300E0814351617047000045
:104F900000100240044A0029D16901D0014300E019
:104FA0008143D1617047000000100240044A00298B
:104FB000916901D0014300E0814391617047000095
:104FC0000010024030B5204A5168204B11F00C010E
:104FD00003D0042901D0082901D0036012E05168F0
:104FE000536801F470114FF0020413F4803F04EB96
:104FF000914102D053689B0301D5154B00E0134B40
:105000005943016051680F2303EA1111114B5C5C95
:105010000168E14041605468072505EA14241C5DDD
:1050200021FA04F48460546805EAD4241B5DD94055
:10503000C1605268032303EA9232064B1B1F9A5C3D
:10504000B1FBF2F1016130BD0010024000127A00A4
:1050500000093D004000002038B501214FF4907058
:10506000FFF7A4FF4FF40055ADF8005048208DF82D
:1050700003000320114C8DF8020069462046FCF71E
:1050800077F829462046FCF7F4F80820ADF8000030
:1050900010200B4D8DF8030069462846FCF768F890
:1050A00008212846FCF7E5F8606820F4700060608D
:1050B000606840F44010606038BD0000002001408E
:1050C0000014014070B5322002F0A8FE0C4D012002
:1050D000C5F8B4010B4EC6F88C01322005F5DA751F
:1050E00006F5C67602F09AFE00243460322002F003
:1050F00095FE2C60BDE87040322002F08FBE0000AB
:1051000000002442008022422DE9F047184F00247D
:10511000786820F470007860786840F40000786067
:10512000DFF85090144E08254FF00108A2463220B7
:1051300002F074FEC6F88C816006040ED9F83401C2
:1051400008B1641CE4B2322002F068FEC6F88CA1FB
:105150006D1E15F0FF05EAD1786820F470007860C4
:10516000786840F4401078602046BDE8F087000081
:1051700000200140000024420080224210B5044675
:1051800000F022F8422000F055F8642002F046FEBC
:10519000204600F04FF8642002F040FE00F02EF8A8
:1051A000642002F03BFE00F00FF8432000F042F8CC
:1051B000642002F033FEFFF7A7FF0446FFF782FFEB
:1051C00000F01CF8204610BD70B50A4E0120C6F84C
:1051D000B401094DC5F88C01322005F5C67506F5F8
:1051E000DA7602F01BFE00243460322002F016FE54
:1051F0002C6070BD000024420080224270B50B4C30
:105200000020C4F8B401322004F5DA7402F006FE7E
:1052100007480125C0F88C51322002F0FFFD2560BF
:10522000BDE87040322002F0F9BD000000002442C9
:10523000008022422DE9F04700241F4E1F4F0546F3
:10524000A0464FF00109280601D5484600E0404637
:10525000C6F8B4016806050E322002F0DFFDC7F87B
:105260008C91322002F0DAFDC7F88C81641CE4B224
:10527000082CE8D3124C606820F47000606060680D
:1052800040F400006060322002F0C8FDC7F88C9145
:10529000322002F0C3FDD6F8340100B10120C7F876
:1052A0008C81616821F470016160616841F4401192
:1052B0006160BDE8F08700000000244200802242C7
:1052C0000020014070B50D4606460024FFF77CFF24
:1052D0004220FFF7AFFF00B10124642002F09EFDE1
:1052E0003046FFF7A7FF00B10124642002F096FDCD
:1052F0002846FFF79FFF00B10124FFF77FFF2046FC
:1053000070BD00002DE9FC4100260096354601964F
:1053100000B102251B484069800102D50E20BDE87E
:10532000FC81194C6946208980B2FBF771FE002888
:10533000F5D10198400322D52089144C00044FF088
:10534000400820603720C4E901084FF480672046F8
:10535000C4E9036700F090F83720FBF7A5FB0028AD
:10536000DDD10620C4F80880C4E90050C4E9036711
:10537000204600F081F80620FBF796FBCFE72520BA
:10538000CDE70000008001401C000020101200202A
:105390000149886370470000008001400149C1F85D
:1053A000A000704700003042034A516821F0FF011D
:1053B00001435160704700000080014001490860CE
:1053C000704700008C05304210B5094902684A62F6
:1053D00042688A62CA6AD0E902342343D0E90440B1
:1053E000044322F0F70223431343CB6210BD0000B5
:1053F0000080014006480021016041608160C16079
:1054000041628162C162034A8263C16370470000E6
:1054100000800140FF07C000034A01460020526B94
:105420000A4200D001207047008001400248006815
:1054300000F00300704700000080014000F06CBBEA
:1054400030B5094B5A6847F6FF618A43017D84688D
:10545000C568214344682C43214304680069214303
:1054600001431143596030BD008001400148D0F82C
:10547000800070470080014010B5084902688A60CA
:10548000CA68D0E901342343D0E9034004436FF3F1
:105490000A0223431343CB6010BD0000008001408B
:1054A00004490A6822F003020A600A6802430A609B
:1054B00070470000008001400149C1F8800070473A
:1054C00000800140F0B50F4604468BB0154601211F
:1054D0000220FFF753FD114E3046FBF7AFFB0021D2
:1054E0003046FBF79FFB0E4880218DE83100B8085D
:1054F00003900020CDE90401890006918900CDE9DF
:1055000007108900CDE9091069463046FBF708FC11
:1055100000213046FBF786FB0BB0F0BD440402408F
:105520008080014010B51049044600200978032905
:1055300006D019B1012901D0022902D1022C01D3D0
:10554000272010BDE0B2FFF7DDFE0028F9D10749A2
:105550004A6822F4C0524A604A68A3B242EAC322AF
:105560004A604A684A6010BD1C000020008001406B
:105570002DE9F0478249DFF80CA24FF0000C0B78C0
:1055800080F856300989A0F85410DAF800104FF06E
:1055900001090A0E95090570C2F38305457002F0F2
:1055A000030282700A0CC2700A0A02714171DAF8B1
:1055B0000420110E0C01C2F3074144EA111401F05A
:1055C0000F08C480C2F3072180F80880CC09447218
:1055D000C1F380148472C1F34014C472C1F3001487
:1055E0000473544680F80DC0A468260EC4F3074522
:1055F000C4F3072733B1012B04D0032B02D0022BB5
:1056000030D03EE08907090DD2B241EA820141EA79
:105610009612C6F3C2010261017506F007014175D9
:1056200069098175C5F38201C175A9074B0F394618
:1056300043EAD1150576AD1C09FA05F3DE17521CB5
:10564000A2FB03570CFB037302FB063309FA08F2B3
:10565000A5FB0267026503FB027205FB0C22C0E991
:1056600012620EE09106890A41EA06222A4302618B
:10567000521C530BD204C0E912234FF40072394676
:105680000265C1F38012427689064A0EE1B242EA0F
:10569000D11200F81A2F01F07F014170DAF80C20C6
:1056A000110ECB098370C1F34113C370C1F38203A0
:1056B000037189070B0FC2F3074143EA911343714A
:1056C000C1F34013837180F807C001F0010101723A
:1056D000C2F30721CB094372C1F380138372C1F374
:1056E0004013C372C1F300130373C1F38103437307
:1056F00001F003018173C2F34601224AC1731032E3
:1057000080F8109011684B460C0E84740C0CC1F399
:10571000072545EA042484820C0651680D0E44EAEC
:105720000544C1F3074544EA0524C1F307252C438A
:10573000C0F8164000F81A1F91680C0E44700C0C4B
:10574000C1F30725240644EA0544C9B244EA01240A
:10575000D16844EA1164C1F307424460047A44EA20
:1057600012140472C1F30724120744EA1252428150
:10577000C1F34601017343736046BDE8F087000042
:105780001C0000203C1200207CB501213020FFF7D6
:105790000DFC012140F20240FFF7F0FB4FF4F850FE
:1057A000ADF8000018258DF8035003248DF8024051
:1057B00069462948FBF7DCFC0420ADF800008DF8B1
:1057C0000350264D8DF8024069462846FBF7D0FC71
:1057D0008021ADF8001048208DF803008DF80240BC
:1057E00069462846FBF7C4FCFFF704FE31208DF81C
:1057F000040000208DF805008DF8060001208DF8CA
:10580000070001A8FFF7BEFA00F0B8F8144C80B901
:1058100000F02AF868B92046FFF7AAFE48B9B4F8A4
:105820005400000400F054FC18B90120FFF77AFE80
:1058300018B10C49097803290AD194F8560040B1EF
:10584000012806D00420FFF7AFFD002000F056FC31
:105850007CBD0A20F7E70000001001400014014061
:10586000601200201C0000202DE9F84F0120ADF847
:105870000000FFF7DBFD88B3DFF8F49099F8000033
:10588000042872D03B4C02204FF0C00B0025C4F816
:1058900008B0C4E900504602C4E903562046FFF7A9
:1058A000EBFDFBF729F900281AD1334F796904F190
:1058B0003C000160B9694160F9698160396AC16081
:1058C00099F800004FF0030A4FF0400850B101284A
:1058D00008D0062806D0022804D012E0FFE72520D1
:1058E000BDE8F88FC4F80880C4E9005AC4E903563B
:1058F0002048FFF7C1FD69460320FBF739F900286E
:10590000EED199F8000003280FD1BDF80000C4F8CB
:1059100008800004C4E9000AC4E903561548FFF7EB
:10592000ABFDFBF7E9F80028DAD199F8000004286C
:105930001BD0BDF80000C9F8080000042060092051
:10594000C4E9010BC4E903560A48FFF795FDFBF7CC
:10595000D3F80028C4D1796906482C300160B969B0
:105960004160F9698160396AC1600020B8E70000D0
:105970001C00002010120020008001402DE9F05F83
:1059800000276048B2213E46017507604760876086
:10599000C7603C463D46B946B8460761FFF750FD33
:1059A0000320FFF77DFD0120FFF7F8FCDFF854A18D
:1059B0004FF4806B0AF1180A5248CAF80080CAF8FE
:1059C0000480CAF80880CAE9038B1830FFF754FD39
:1059D000FBF755F828B17F1CFFB24A2FECD3BDE886
:1059E000F09F4FF4D570CAF8000008205746CAF857
:1059F00004004020C7E902080001CAF8100041482D
:105A00001830FFF739FDFBF7EFF820B93E490120C8
:105A10004FF080490870BA46384641463722402741
:105A200080E88600C0F80C8036483901C34618303B
:105A3000CAF81010FFF720FD3720FBF735F84FF6B6
:105A4000FF7888B3B9465646304F4FF0010B4FF4FC
:105A5000806ABDB34DE055463720C5E900B04FF42C
:105A60008068CAF810802748C5E9027B5E46183076
:105A7000FFF702FD3720FBF717F80028AFD12449C4
:105A800049EA010028602920C5E90107C5E9036842
:105A90001C481830FFF7F0FCFBF752F800289ED1A5
:105AA0001A494E69F50F641C1DB94FF6FF718C42FF
:105AB000D1D34FF6FF718C421DD216F0804F8ED09D
:105AC00002221BE013E01348C6E9000B0020C6F8D1
:105AD00010A0C6E902900B481830FFF7CDFCFBF789
